:0800F800FFFF4457494E543547
:03000000020A1AD7
:100A1A0078FFE4F6D8FD7401F5947402F595908098
:100A2A00007F007E80E4F0A3DFFCDEFA75812002FD
:020A3A000A7739
:100F0E00120F56120F32908105E0B401129080023A
:100F1E00E0700C120100E4908105F0908104F01253
:040F2E00002E80DF32
:100E6200C2AFC2D3C2D4E4F58E75C870F59375BE15
:100E72000CF5B043C94043B703F5F875F901F5A87D
:100E8200F5B8F59AF5A9F5B953C9FD53B7CF43B7EC
:100E92001075D88075985053877F75BA0375AAE488
:060EA20075A810C2C82271
:100FB300E4F5CDF5CC75C87075CBBC75CACD43A827
:080FC30020D2C8D2ADD2AF224A
:10101B00438901758CBC758ACDD2A9D2AFD28C22F3
:10102B00438901758DBC758BCDD2ABD2AFD28E22DD
:100F5600120E62120FB312101B12102B7F03120C0B
:100F6600227F04120C227D967C007F067E10020CE6
:010F76002852
:100FCB00AD07AC067F857E00120C287D017C5A7F15
:060FDB00847E00020C28D8
:040DD200AD07AC06B7
:100DD600E4FBFAC2AFF5F1ECC313FEEEF5F2ECC399
:100DE60013ED13F5F375F8AF30FCFDD2FE20FEFDD2
:100DF600ED30E008AFFCEFFEADFD8006AFFAEFFE8A
:100E0600ADFB7C00E42DFBEC3EFAE4F5F8D2AFAE88
:030E160002AF0325
:010E190022B6
:060C22007D327C007E2003
:100C2800AB07AA06C2AFE4F5F1EAC313FEEEF5F28C
:100C3800EAC313EB13F5F375F8AF30FCFDD2FE20D1
:100C4800FEFDE4F5F8EAC313FEEEF5F2EAC313EB92
:100C580013F5F375F88F30FCFDEB30E007ECF5FC8D
:100C68008DFD8007ECF5FAAF058FFBD2FE20FEFD67
:060C7800E4F5F8D2AF2202
:100CD700418105004181040041800200C103428037
:0D0CE7000003E8C100C101C10202080000C5
:09100A00F582E43481F583E0FF76
:081013002003FDD2038F992296
:10010000E4908106F0A3F0A3F0A3F0A3F0A3F09095
:100110008108E0FF2403F582E43480F583E0645A2B
:10012000600302037174042FF582E43480F583E0E8
:1001300064A56003020371908108E02406F582E45F
:100140003480F583E0FE247D7003020231046003F5
:1001500002037174052FF582E43480F583E024FDF9
:10016000FFE434FFC313EF13908109F0E49081069C
:10017000F0908109E0FF908106E0FDC39F507890E8
:100180008108E0FC2407F582E43480F583E0FE7406
:10019000082CF582E43480F583E0FBEBFFEDFB7A7D
:1001A00000EF2BFFEA3EFEC006C00775F002EDA48B
:1001B0002CF582E435F0F583E5822409F582E583A8
:1001C0003480F583E0FE908106E075F002A42CF502
:1001D00082E435F0F583E582240AF582E5833480F4
:1001E000F583E0FDEEFCEDD007D006120C289081DF
:1001F00006E004F002017190810C745AF0A374A51A
:10020000F0A37403F0A37482F0A3744FF0A3744BB3
:10021000F0E4908107F0908107E0FFC3940640036B
:10022000020371740C2F12100A908107E004F08011
:10023000E5908108E0FF2403F582E43480F583E053
:1002400090810CF074042FF582E43480F583E09003
:10025000810DF0908108E02406F582E43480F58376
:10026000E090810FF074072FF582E43480F583E08D
:10027000908110F0908108E02408F582E43480F544
:1002800083E0908111F074092FF582E43480F583C6
:10029000E0908112F0E4908107F0908108E0240959
:1002A000F582E43480F583E0FF908107E0F9C39F95
:1002B0005064A3E0FD2407F582E43480F583E0FE7A
:1002C00074082DF582E43480F583E07C002400FF7F
:1002D000EC3EFEE92FFFEC3EFE120DD290810AEEBD
:1002E000F0A3EFF090810AE0FCA3E0FDECFF908129
:1002F00007E0FE25E02413F582E43481F583EFF076
:10030000EE25E02414F582E43481F583EDF090814C
:1003100007E004F08084908108E0FF2409F582E47E
:100320003480F583E025E02404FE90810EF074050E
:100330002FF582E43480F583EEF0E4908107F090AD
:100340008108E02405F582E43480F583E02403FF8E
:10035000E433FE908107E0FDC39FEE6480F8748073
:1003600098500E740C2D12100A908107E004F08052
:10037000CE908108E004F0908104E024FCFF90819D
:0903800008E0C39F500302010FC5
:010389002251
:03000B00020003ED
:07000300758CBC758ACD323B
:03001B0002105977
:07105900758DBC758BCD32D3
:03002B00020B487D
:100B4800C0E0C083C082C0D075D000C000C2C690CB
:100B58008185E004F07006908184E004F07809E66D
:100B68001846600708E61618700116908002E0D350
:100B780094004003E014F0D3908001E0940090804A
:100B880000E09400400CA3E024FFF0908000E034E3
:100B9800FFF0908000E07002A3E070109080007475
:100BA80003F0A374E8F0D200D201D202D000D0D072
:070BB800D082D083D0E032AF
:03002300020EA822
:100EA800C0E0C083C082C0D0309825908104E0247F
:100EB80003F582E43480F583E599F05398FE908138
:100EC800057401F0908104E004F0908002740AF047
:100ED8003099055398FDC203D0D0D082D083D0E09A
:010EE80032D7
:0F104A0000000000000000000000000000000097
:070CF4004281840000C104ED
:07103B00D2B3121042D2B241
:07104200E4FF0FEFB450FBC7
:011049002284
:04001E0053BEF722B4
:0400260043BE0822AB
:100FF600120026D2B3D2B2121042C2B3121042C2AB
:04100600B2021042E0
:0F0F77007F1E120BFDE4FF120BFD7F10120BFD0E
:100F8600120026C2B3D2B2121042D2B312104202DB
:020F9600001E3B
:0D000E00120026C2B312103DC2B202104211
:0B00EB0012002612103BC2B2021042AD
:100F980012001E12103BE4FE30B3081210420EEE8F
:0B0FA800B432F5C2B212104202002663
:100BBF00120FF67F64120BFD7F30120BFDE4FF1254
:100BCF000BFD120F86120FF67F64120BFD7F1C12A6
:100BDF000BFD7F48120BFDE4FF120BFD7F40120B44
:0E0BEF00FD7F10120BFD120F86120FF67F64B1
:020BFD00AE0741
:100BFF00120026E4FDEE30E704D2B38002C2B3EE5A
:100C0F0025E0FE12103DC2B21210420DEDB408E500
:030C1F00020F9829
:100EE90012001EE4FD12103DEE25E0FE30B305446C
:100EF90001FE8004EE54FEFEC2B21210420DEDB4A2
:040F090008E3AF0644
:010F0D0022C1
:0A066100908112EBF0908111EDF092
:10066B00EF24D0FEE43407908114F0A3CEF0ED64B8
:10067B00016007908111E0B40215908111E0240C08
:10068B00F0908115E024FFF0908114E034FFF0909E
:10069B008114E0FEA3E0FFC394D8EE9406402CBE79
:1006AB00060CBFD809908111E0C39409401D9081BD
:1006BB0014E064067004A3E064D87061908111E0CB
:1006CB0064097059A3E0C394035052908111E0FB6D
:1006DB002401FFE433FE7C007D031205FA7D051235
:1006EB00060CAD07EB75F002A4FFA3E07A002FFF19
:1006FB00EA35F0CF2DCF3EFE908114E0FCA3E0FD58
:10070B002FFBEC3EFAEDAE047802CEC313CE13D81A
:10071B00F92BFFEA3ECF2406CF3400807C90811169
:10072B00E02401FFE433FE7C007D031205FA7D0516
:10073B0012060CAC06AD07A3E02401FBE433FA90E0
:10074B008111E075F002A42BFFE5F03ACF2DCF3CE1
:10075B00FE908114E0FCA3E0FD2FFBEC3EFAEDAE26
:10076B00047802CEC313CE13D8F92BFBEA3EFA90D2
:10077B008114E0FEA3E0FF7C007D6412060CC3EB4A
:10078B009FFBEA9EFA908114E0FEA3E0FF7C017DC3
:10079B009012060CEF2BFFEE3AFE7C007D07120643
:0B07AB000C908113EDF0908113E0FF33
:0107B6002220
:1008FD0078087C817D017BFF7A10794A7E007F0824
:10090D001205D4120BF8120F81120FF67F65120B20
:10091D00FD7C06120EE974082CF582E43481F58312
:10092D00EFF012000EDCEC120EE9908108EFF012E0
:10093D0000EB120F86E4FC74082CF582E43481F58B
:10094D0083E0FFC4540FFE908106F0EF540FFFA318
:10095D00F0EE75F00AA42FFF74082CF582E43481B3
:10096D00F583EFF00CECB403CE7C0474082CF58207
:10097D00E43481F583E0FFC4540FFE908106F0EF5F
:10098D00540FFFA3F0EE75F00AA42FFF74082CF599
:10099D0082E43481F583EFF00CECB407CE9081083E
:1009AD00E0FFA3E0FDA3E0FB12066190810BEFF0E9
:1009BD00E490810FF0908108E0FEA3E07C0024001C
:1009CD00FDEC3EFC7F107E00120C2890810AE0FEAB
:1009DD00A3E07C002400FDEC3EFC7F117E00120C98
:1009ED002890810CE0FEA3E07C002400FDEC3EFC91
:1009FD007F127E00120C2890810EE0FEA3E07C0099
:0D0A0D002400FDEC3EFC7F137E00020C284F
:100D2F00120BF87F1D120BFD120F86120FF67F6547
:100D3F00120BFD120EE9AC0712000E120EE9120093
:100D4F00EB120F86EC30E12E120BBF7F10120BFD52
:100D5F00E4FF120BFDE4FF120BFDE4FF120BFD7F0E
:100D6F0001120BFD7F01120BFD7F01120BFD7F178F
:060D7F00120BF2120F77C7
:010D8500224B
:10038A007F9C7E00120DD2EF64A57003EE645A6062
:04039A000302050352
:10039E00908106F0A3F0D20578087C817D017BFF69
:1003AE007A107952FE7F071205D47F9D7E00120DC2
:1003BE00D290810FEEF0A3EFF090810FE0FCA3E05E
:1003CE00FDEC908106F0E0FF75F00A84C454F0FE57
:1003DE00EF75F00A84EE25F0908108F0908106ED1D
:1003EE00F0E0FF75F00A84C454F0FEEF75F00A8455
:1003FE00EE25F0908109F07F9E7E00120DD2908145
:10040E000FEEF0A3EFF090810FE0908106F0E0FF89
:10041E0075F00A84C454F0FEEF75F00A84EE25F0F0
:10042E0090810AF0FB908108E0FFA3E0FD120661C7
:10043E0090810BEFF090810FA3E0908106F0E0FF2A
:10044E0075F00A84C454F0FEEF75F00A84EE25F0C0
:10045E0090810CF07F9F7E00120DD290810FEEF0F6
:10046E00A3EFF090810FE0FCA3E0FDEC908106F08D
:10047E00E0FF75F00A84C454F0FEEF75F00A84EEC6
:10048E0025F090810DF0908106EDF0E0FF75F00AF9
:10049E0084C454F0FEEF75F00A84EE25F090810EC0
:1004AE00F0E4FDFC7F9CFE120C28300548120BBFB9
:1004BE007F10120BFD90810EE0FF120BFD90810D4F
:1004CE00E0FF120BFD90810CE0FF120BFD90810BF3
:1004DE00E0FF120BFD90810AE0FF120BFD908109E7
:1004EE00E0FF120BFD908108E0FF120BF2120F7766
:0504FE00C2050204B874
:0105030022D5
:100F3200200405D204120D2FC3908185E094F49011
:100F42008184E09401400A1208FDE4908184F0A3B8
:040F5200F002038A1C
:100CFB0042817800004281820000428180000042E4
:100D0B00817E00004181700041817101418172013E
:100D1B0041817300428176000042817A000042815A
:030D2B007C000049
:040C7E007D027F0173
:100C8200EF14601A14602714603424037042740154
:100C9200A805088002C333D8FC5580FE8034740155
:100CA200A805088002C333D8FC5590FE8024740145
:100CB200A805088002C333D8FC55A0FE8014AF05F6
:100CC2007401A807088002C333D8FC55B0FE800225
:040CD200E4FEAF0687
:010CD60022FB
:100FE100EF4E6010E4FD0DEDC3943240F9EF1F7038
:040FF100EF1E80EC83
:010FF50022D9
:080E1A00908116EEF0A3EFF049
:100E2200E4A3F0A3F0908116E0FEA3E0FFC390815B
:100E320019E09F908118E09E5025E4FBFA7F017E25
:100E420000120FE10BBB00010ABA01F1BB2CEE90BC
:0F0E52008119E004F070CE908118E004F080C6A2
:010E6100226E
:1007B700E4FC7FFAFE120FE1E4FD7F01120C82EFE9
:1007C70060089081157401F08005E4908115F07D33
:1007D700017F01120C82EF600479018002E4F912B3
:1007E7000C7EEF7046120C7EEF7026908177E00446
:1007F700F07006908176E004F07F017E00120E1AF9
:10080700C3908177E094D0908176E0940740D67CBE
:1008170004908176E0FEA3E0FFD3940AEE940040B3
:100827000AEF94D0EE940750027C03120C7EEF601F
:1008370007E4908176F0A3F0908115E0FF640170E2
:100847002BE964017026908173E06014E4F09081D5
:1008570070E0FEB442047C018006EEB424027C0200
:10086700E4908170F0A304F0A3F080629081737428
:1008770001F0EF6006A37401F08005E4908174F045
:10088700E960089081757401F08005E4908175F046
:10089700908171E0FF908174E0B5070C908172E060
:1008A700FF908175E06F6026908174E0FF90817101
:1008B700F0908175E0FE908172F0908170E0FDEF1D
:1008C7002DF0E025E0FFF0EE2FF0E025E0F0ECB4AE
:1008D70001057E007F0122ECB402057E007F022223
:1008E700ECB403057E007F0322ECB404057E007F91
:0508F7000422E4FEFFF5
:0108FC0022D9
:100ABC0090810DEEF0A3EFF0A3ECF0A3EDF0A3EA20
:040ACC00F0A3EBF0B8
:100AD000E4A3F0A3F01207B7908113EEF0A3EFF0B8
:100AE00064024E7008908113A3E0FF804090811350
:100AF000E0FEA3E0FF64014E70028031908113E0BC
:100B0000FEA3E0FF64034E70028022908113E0FE9A
:100B1000A3E0FF64044E701890817AE0FCA3E0FD2E
:100B2000EF6D7002EE6C6008908113A3E0120D86E9
:100B3000908113E0FFA3E090817ACFF0A3EFF090D3
:070B40008182E0FEA3E0FF4B
:010B4700228B
:10002E00E4908106F0A3F0A3F0A3F0A3F0A3F07F79
:10003E0014FE120DD290810AEEF0A3EFF0E4FBFA5B
:10004E007D1EFC7F01FE120ABC908106EEF0A3EF2E
:0D005E00F0908178E06E7003A3E06F604ABF
:10006B00E490810CF0908106E0FEA3E0FF90817894
:10007B00EEF0A3EFF090817EEEF0A3EFF0E4908131
:10008B000CF090810CE0FFC3941F501EEFFD7C0021
:10009B00908106E0FEA3E0FFB50507ECB506031261
:0A00AB000FCB90810CE004F080D828
:1000B500908180E0B4FF15A3E0B4FE10E490818048
:1000C500F0A3F090810AA3E0FF120D86908180E0F5
:1000D500B4FF12A3E0B4FF0DE4908180F0A3F07F9C
:0500E50001FE120FCB2B
:0100EA0022F3
:100D8600E4908115F0A3745AF0A374A5F0A3740639
:100D9600F0A37483F0A37480F0E4A3F0A304F0E45A
:100DA600A3F0A3EFF0E4908115F0908115E0FFC366
:100DB6009409501774162FF582E43481F583E0FF09
:0B0DC600121013908115E004F080DF94
:010DD10022FF
:100A3C00020F0EE493A3F8E493A34003F68001F2B3
:100A4C0008DFF48029E493A3F85407240CC8C333BB
:100A5C00C4540F4420C8834004F456800146F6DF8A
:100A6C00E4800B0102040810204080900CD7E47E37
:100A7C00019360BCA3FF543F30E509541FFEE4937F
:100A8C00A360010ECF54C025E060A840B8E493A346
:100A9C00FAE493A3F8E493A3C8C582C8CAC583CA71
:100AAC00F0A3C8C582C8CAC583CADFE9DEE780BE29
:010D2E0000C4
:10050400E709F608DFFA8046E709F208DFFA803ED9
:1005140088828C83E709F0A3DFFA8032E309F608C6
:10052400DFFA8078E309F208DFFA807088828C832E
:10053400E309F0A3DFFA806489828A83E0A3F608E2
:10054400DFFA805889828A83E0A3F208DFFA804CBC
:1005540080D280FA80C680D4806980F28033801093
:1005640080A680EA809A80A880DA80E280CA8033FC
:1005740089828A83ECFAE493A3C8C582C8CCC58374
:10058400CCF0A3C8C582C8CCC583CCDFE9DEE78044
:100594000D89828A83E493A3F608DFF9ECFAA9F0C3
:1005A400EDFB2289828A83ECFAE0A3C8C582C8CC19
:1005B400C583CCF0A3C8C582C8CCC583CCDFEADE32
:1005C400E880DB89828A83E493A3F208DFF980CC94
:1005D40088F0EF60010E4E60C388F0ED2402B4048D
:1005E4000050B9F582EB2402B4040050AF23234534
:0605F40082239005547300
:1005FA00EF8DF0A4A8F0CF8CF0A428CE8DF0A42E15
:02060A00FE22CE
:10060C00BC000BBE0029EF8DF084FFADF022E4CCD2
:10061C00F875F008EF2FFFEE33FEEC33FCEE9DEC9B
:10062C00984005FCEE9DFE0FD5F0E9E4CEFD22EDE1
:10063C00F8F5F0EE8420D21CFEADF075F008EF2F2B
:10064C00FFED33FD4007985006D5F0F222C398FD1C
:05065C000FD5F0EA22B9
:00000001FF
